{
  "_format": "hh3-artifact-1",
  "contractName": "SavingsVault",
  "sourceName": "contracts/savings/SavingsVault.sol",
  "abi": [
    {
      "inputs": [
        {
          "internalType": "contract IMFI",
          "name": "_mfi",
          "type": "address"
        },
        {
          "internalType": "contract ISavingsNFT",
          "name": "_nft",
          "type": "address"
        },
        {
          "internalType": "address",
          "name": "_treasury",
          "type": "address"
        },
        {
          "internalType": "uint16",
          "name": "_feeBps",
          "type": "uint16"
        }
      ],
      "stateMutability": "nonpayable",
      "type": "constructor"
    },
    {
      "inputs": [],
      "name": "InvalidAmount",
      "type": "error"
    },
    {
      "inputs": [],
      "name": "NotMultipleOfRoseUnit",
      "type": "error"
    },
    {
      "inputs": [],
      "name": "NotTokenOwner",
      "type": "error"
    },
    {
      "inputs": [],
      "name": "ZeroAddress",
      "type": "error"
    },
    {
      "anonymous": false,
      "inputs": [
        {
          "indexed": true,
          "internalType": "address",
          "name": "user",
          "type": "address"
        },
        {
          "indexed": false,
          "internalType": "uint256",
          "name": "amountMFI",
          "type": "uint256"
        },
        {
          "indexed": false,
          "internalType": "uint256",
          "name": "rosesAdded",
          "type": "uint256"
        }
      ],
      "name": "Deposited",
      "type": "event"
    },
    {
      "anonymous": false,
      "inputs": [
        {
          "indexed": true,
          "internalType": "address",
          "name": "user",
          "type": "address"
        },
        {
          "indexed": true,
          "internalType": "uint256",
          "name": "tokenId",
          "type": "uint256"
        },
        {
          "indexed": false,
          "internalType": "uint8",
          "name": "roseCount",
          "type": "uint8"
        }
      ],
      "name": "NFTMinted",
      "type": "event"
    },
    {
      "anonymous": false,
      "inputs": [
        {
          "indexed": true,
          "internalType": "address",
          "name": "user",
          "type": "address"
        },
        {
          "indexed": true,
          "internalType": "uint256",
          "name": "tokenId",
          "type": "uint256"
        },
        {
          "indexed": false,
          "internalType": "uint8",
          "name": "oldCount",
          "type": "uint8"
        },
        {
          "indexed": false,
          "internalType": "uint8",
          "name": "newCount",
          "type": "uint8"
        }
      ],
      "name": "NFTUpgraded",
      "type": "event"
    },
    {
      "anonymous": false,
      "inputs": [
        {
          "indexed": true,
          "internalType": "address",
          "name": "user",
          "type": "address"
        },
        {
          "indexed": true,
          "internalType": "uint256",
          "name": "tokenId",
          "type": "uint256"
        },
        {
          "indexed": false,
          "internalType": "uint256",
          "name": "principal",
          "type": "uint256"
        },
        {
          "indexed": false,
          "internalType": "uint256",
          "name": "fee",
          "type": "uint256"
        },
        {
          "indexed": false,
          "internalType": "uint256",
          "name": "payout",
          "type": "uint256"
        }
      ],
      "name": "Redeemed",
      "type": "event"
    },
    {
      "inputs": [],
      "name": "ROSE_UNIT",
      "outputs": [
        {
          "internalType": "uint256",
          "name": "",
          "type": "uint256"
        }
      ],
      "stateMutability": "view",
      "type": "function"
    },
    {
      "inputs": [
        {
          "internalType": "address",
          "name": "",
          "type": "address"
        }
      ],
      "name": "activeBucketId",
      "outputs": [
        {
          "internalType": "uint256",
          "name": "",
          "type": "uint256"
        }
      ],
      "stateMutability": "view",
      "type": "function"
    },
    {
      "inputs": [
        {
          "internalType": "uint256",
          "name": "amount",
          "type": "uint256"
        }
      ],
      "name": "deposit",
      "outputs": [],
      "stateMutability": "nonpayable",
      "type": "function"
    },
    {
      "inputs": [],
      "name": "feeBps",
      "outputs": [
        {
          "internalType": "uint16",
          "name": "",
          "type": "uint16"
        }
      ],
      "stateMutability": "view",
      "type": "function"
    },
    {
      "inputs": [
        {
          "internalType": "address",
          "name": "user",
          "type": "address"
        }
      ],
      "name": "getUserDeposits",
      "outputs": [
        {
          "internalType": "uint256[]",
          "name": "",
          "type": "uint256[]"
        }
      ],
      "stateMutability": "view",
      "type": "function"
    },
    {
      "inputs": [],
      "name": "mfi",
      "outputs": [
        {
          "internalType": "contract IMFI",
          "name": "",
          "type": "address"
        }
      ],
      "stateMutability": "view",
      "type": "function"
    },
    {
      "inputs": [],
      "name": "nft",
      "outputs": [
        {
          "internalType": "contract ISavingsNFT",
          "name": "",
          "type": "address"
        }
      ],
      "stateMutability": "view",
      "type": "function"
    },
    {
      "inputs": [
        {
          "internalType": "uint256",
          "name": "tokenId",
          "type": "uint256"
        }
      ],
      "name": "previewRedeem",
      "outputs": [
        {
          "internalType": "uint256",
          "name": "principal",
          "type": "uint256"
        },
        {
          "internalType": "uint256",
          "name": "fee",
          "type": "uint256"
        },
        {
          "internalType": "uint256",
          "name": "payout",
          "type": "uint256"
        }
      ],
      "stateMutability": "view",
      "type": "function"
    },
    {
      "inputs": [
        {
          "internalType": "uint256",
          "name": "tokenId",
          "type": "uint256"
        }
      ],
      "name": "redeem",
      "outputs": [],
      "stateMutability": "nonpayable",
      "type": "function"
    },
    {
      "inputs": [],
      "name": "treasury",
      "outputs": [
        {
          "internalType": "address",
          "name": "",
          "type": "address"
        }
      ],
      "stateMutability": "view",
      "type": "function"
    }
  ],
  "bytecode": "0x610100604052348015610010575f5ffd5b5060405161119138038061119183398101604081905261002f916100bd565b60015f556001600160a01b038416158061005057506001600160a01b038316155b8061006257506001600160a01b038216155b156100805760405163d92e233d60e01b815260040160405180910390fd5b6001600160a01b0393841660805291831660a05290911660e05261ffff1660c05261011f565b6001600160a01b03811681146100ba575f5ffd5b50565b5f5f5f5f608085870312156100d0575f5ffd5b84516100db816100a6565b60208601519094506100ec816100a6565b60408601519093506100fd816100a6565b606086015190925061ffff81168114610114575f5ffd5b939692955090935050565b60805160a05160c05160e051610ff361019e5f395f81816101c40152610b5b01525f818160d6015261039f01525f8181610130015281816102f0015281816105c7015281816106eb015281816107c7015281816108ea01526109ac01525f818161019d0152818161046001528181610b8c0152610c670152610ff35ff3fe608060405234801561000f575f5ffd5b506004361061009b575f3560e01c8063516bc45011610063578063516bc4501461019857806361d027b3146101bf578063950b6d3f146101e6578063b6b55f25146101f5578063db006a751461020a575f5ffd5b806314b2b7501461009f57806324a9d853146100d15780632a5bf6d21461010b57806347ccca021461012b5780634cdad5061461016a575b5f5ffd5b6100be6100ad366004610de6565b60016020525f908152604090205481565b6040519081526020015b60405180910390f35b6100f87f000000000000000000000000000000000000000000000000000000000000000081565b60405161ffff90911681526020016100c8565b61011e610119366004610de6565b61021d565b6040516100c89190610e08565b6101527f000000000000000000000000000000000000000000000000000000000000000081565b6040516001600160a01b0390911681526020016100c8565b61017d610178366004610e4a565b6102ea565b604080519384526020840192909252908201526060016100c8565b6101527f000000000000000000000000000000000000000000000000000000000000000081565b6101527f000000000000000000000000000000000000000000000000000000000000000081565b6100be678ac7230489e8000081565b610208610203366004610e4a565b6103e4565b005b610208610218366004610e4a565b6108c2565b60606001600160a01b03821661025f575f5b604051908082528060200260200182016040528015610258578160200160208202803683370190505b5092915050565b6001600160a01b0382165f908152600260205260408120549003610283575f61022f565b6001600160a01b0382165f90815260026020908152604091829020805483518184028101840190945280845290918301828280156102de57602002820191905f5260205f20905b8154815260200190600101908083116102ca575b50505050509050919050565b5f5f5f5f7f00000000000000000000000000000000000000000000000000000000000000006001600160a01b03166311f847ce866040518263ffffffff1660e01b815260040161033c91815260200190565b602060405180830381865afa158015610357573d5f5f3e3d5ffd5b505050506040513d601f19601f8201168201806040525081019061037b9190610e61565b9050610392678ac7230489e8000060ff8316610e95565b93506127106103c561ffff7f00000000000000000000000000000000000000000000000000000000000000001686610e95565b6103cf9190610ec6565b92506103db8385610ed9565b93959294505050565b6103ec610d7b565b805f0361040c5760405163162908e360e11b815260040160405180910390fd5b61041e678ac7230489e8000082610eec565b1561043c57604051636ec34ab760e11b815260040160405180910390fd5b6040516323b872dd60e01b8152336004820152306024820152604481018290525f907f00000000000000000000000000000000000000000000000000000000000000006001600160a01b0316906323b872dd906064016020604051808303815f875af11580156104ae573d5f5f3e3d5ffd5b505050506040513d601f19601f820116820180604052508101906104d29190610eff565b9050806105265760405162461bcd60e51b815260206004820152601760248201527f4d4649207472616e7366657246726f6d206661696c656400000000000000000060448201526064015b60405180910390fd5b5f610539678ac7230489e8000084610ec6565b604080518581526020810183905291925033917f73a19dd210f1a7f902193214c0ee91dd35ee5b4d920cba8d519eca65a7b488ca910160405180910390a2335f908152600160205260409020545b81156108b357805f036106d3575f600a83116105a357826105a6565b600a5b604051630348ab1560e51b815233600482015260ff821660248201529091507f00000000000000000000000000000000000000000000000000000000000000006001600160a01b03169063691562a0906044016020604051808303815f875af1158015610615573d5f5f3e3d5ffd5b505050506040513d601f19601f820116820180604052508101906106399190610f1e565b335f818152600160208181526040808420869055600282528084208054938401815580855282852090930186905591548584526003825292829020929092555160ff8516815292945084927f5716925f2a990bb51e5354134a606547c86dc787be1a2729eef575fd0c2bea1e910160405180910390a36106bc60ff821684610ed9565b92508060ff16600a036106cd575f91505b50610587565b6040516308fc23e760e11b8152600481018290525f907f00000000000000000000000000000000000000000000000000000000000000006001600160a01b0316906311f847ce90602401602060405180830381865afa158015610738573d5f5f3e3d5ffd5b505050506040513d601f19601f8201168201806040525081019061075c9190610e61565b90508060ff16600a03610781575050335f908152600160205260408120819055610587565b5f61078d82600a610f35565b90505f8160ff1685116107a057846107a5565b8160ff165b604051633eff2dc960e11b81526004810186905260ff821660248201529091507f00000000000000000000000000000000000000000000000000000000000000006001600160a01b031690637dfe5b92906044015f604051808303815f87803b158015610810575f5ffd5b505af1158015610822573d5f5f3e3d5ffd5b508692503391507f20eeafca9c3b4156772eb370fcdaae29723950376a0e901efb937b9d2bad35f59050856108578582610f4e565b6040805160ff93841681529290911660208301520160405180910390a361088160ff821686610ed9565b945061088d8184610f4e565b60ff16600a036108ab57335f90815260016020526040812081905593505b505050610587565b5050506108bf60015f55565b50565b6108ca610d7b565b6040516331a9108f60e11b81526004810182905233906001600160a01b037f00000000000000000000000000000000000000000000000000000000000000001690636352211e90602401602060405180830381865afa15801561092f573d5f5f3e3d5ffd5b505050506040513d601f19601f820116820180604052508101906109539190610f67565b6001600160a01b03161461097a576040516359dc379f60e01b815260040160405180910390fd5b5f5f5f610986846102ea565b604051630852cd8d60e31b81526004810188905292955090935091506001600160a01b037f000000000000000000000000000000000000000000000000000000000000000016906342966c68906024015f604051808303815f87803b1580156109ed575f5ffd5b505af11580156109ff573d5f5f3e3d5ffd5b5050335f908152600160205260409020548690039150610a2b905057335f908152600160205260408120555b5f848152600360205260409020548015610b3e575f610a4b600183610ed9565b335f9081526002602052604081205491925090610a6a90600190610ed9565b9050808214610af957335f908152600260205260408120805483908110610a9357610a93610f82565b905f5260205f20015490508060025f336001600160a01b03166001600160a01b031681526020019081526020015f208481548110610ad357610ad3610f82565b5f91825260209091200155610ae9836001610f96565b5f91825260036020526040909120555b335f908152600260205260409020805480610b1657610b16610fa9565b5f828152602080822083015f1990810183905590920190925588825260039052604081205550505b8215610c495760405163a9059cbb60e01b81526001600160a01b037f000000000000000000000000000000000000000000000000000000000000000081166004830152602482018590525f917f00000000000000000000000000000000000000000000000000000000000000009091169063a9059cbb906044016020604051808303815f875af1158015610bd4573d5f5f3e3d5ffd5b505050506040513d601f19601f82011682018060405250810190610bf89190610eff565b905080610c475760405162461bcd60e51b815260206004820152601760248201527f4d464920666565207472616e73666572206661696c6564000000000000000000604482015260640161051d565b505b60405163a9059cbb60e01b8152336004820152602481018390525f907f00000000000000000000000000000000000000000000000000000000000000006001600160a01b03169063a9059cbb906044016020604051808303815f875af1158015610cb5573d5f5f3e3d5ffd5b505050506040513d601f19601f82011682018060405250810190610cd99190610eff565b905080610d285760405162461bcd60e51b815260206004820152601a60248201527f4d4649207061796f7574207472616e73666572206661696c6564000000000000604482015260640161051d565b6040805186815260208101869052908101849052869033907f76cd0cedf979345ca241ce6de696a520a8efc860c6c10d9db2a7953307c237fc9060600160405180910390a350505050506108bf60015f55565b60025f5403610dcc5760405162461bcd60e51b815260206004820152601f60248201527f5265656e7472616e637947756172643a207265656e7472616e742063616c6c00604482015260640161051d565b60025f55565b6001600160a01b03811681146108bf575f5ffd5b5f60208284031215610df6575f5ffd5b8135610e0181610dd2565b9392505050565b602080825282518282018190525f918401906040840190835b81811015610e3f578351835260209384019390920191600101610e21565b509095945050505050565b5f60208284031215610e5a575f5ffd5b5035919050565b5f60208284031215610e71575f5ffd5b815160ff81168114610e01575f5ffd5b634e487b7160e01b5f52601160045260245ffd5b8082028115828204841417610eac57610eac610e81565b92915050565b634e487b7160e01b5f52601260045260245ffd5b5f82610ed457610ed4610eb2565b500490565b81810381811115610eac57610eac610e81565b5f82610efa57610efa610eb2565b500690565b5f60208284031215610f0f575f5ffd5b81518015158114610e01575f5ffd5b5f60208284031215610f2e575f5ffd5b5051919050565b60ff8281168282160390811115610eac57610eac610e81565b60ff8181168382160190811115610eac57610eac610e81565b5f60208284031215610f77575f5ffd5b8151610e0181610dd2565b634e487b7160e01b5f52603260045260245ffd5b80820180821115610eac57610eac610e81565b634e487b7160e01b5f52603160045260245ffdfea2646970667358221220cca85e7fe3c3426c46e2c7a7743e7f57d5cdd7a3f2a694540064f3aca241b54164736f6c634300081e0033",
  "linkReferences": {},
  "deployedLinkReferences": {},
  "immutableReferences": {
    "180": [
      {
        "length": 32,
        "start": 413
      },
      {
        "length": 32,
        "start": 1120
      },
      {
        "length": 32,
        "start": 2956
      },
      {
        "length": 32,
        "start": 3175
      }
    ],
    "183": [
      {
        "length": 32,
        "start": 304
      },
      {
        "length": 32,
        "start": 752
      },
      {
        "length": 32,
        "start": 1479
      },
      {
        "length": 32,
        "start": 1771
      },
      {
        "length": 32,
        "start": 1991
      },
      {
        "length": 32,
        "start": 2282
      },
      {
        "length": 32,
        "start": 2476
      }
    ],
    "186": [
      {
        "length": 32,
        "start": 214
      },
      {
        "length": 32,
        "start": 927
      }
    ],
    "189": [
      {
        "length": 32,
        "start": 452
      },
      {
        "length": 32,
        "start": 2907
      }
    ]
  },
  "inputSourceName": "project/contracts/savings/SavingsVault.sol",
  "buildInfoId": "solc-0_8_30-b30aba2a0f0778db6c8ca7bdcb98400bd9be1659"
}