{
  "_format": "hh3-artifact-1",
  "contractName": "Exchange",
  "sourceName": "contracts/exchange/Exchange.sol",
  "abi": [
    {
      "inputs": [
        {
          "internalType": "contract IMFI",
          "name": "_mfi",
          "type": "address"
        },
        {
          "internalType": "uint256",
          "name": "_rate",
          "type": "uint256"
        }
      ],
      "stateMutability": "nonpayable",
      "type": "constructor"
    },
    {
      "inputs": [],
      "name": "InvalidAmount",
      "type": "error"
    },
    {
      "inputs": [],
      "name": "ZeroAddress",
      "type": "error"
    },
    {
      "anonymous": false,
      "inputs": [
        {
          "indexed": true,
          "internalType": "address",
          "name": "buyer",
          "type": "address"
        },
        {
          "indexed": false,
          "internalType": "uint256",
          "name": "ethIn",
          "type": "uint256"
        },
        {
          "indexed": false,
          "internalType": "uint256",
          "name": "mfiOut",
          "type": "uint256"
        }
      ],
      "name": "Purchased",
      "type": "event"
    },
    {
      "inputs": [
        {
          "internalType": "address",
          "name": "to",
          "type": "address"
        }
      ],
      "name": "buyMFI",
      "outputs": [],
      "stateMutability": "payable",
      "type": "function"
    },
    {
      "inputs": [],
      "name": "mfi",
      "outputs": [
        {
          "internalType": "contract IMFI",
          "name": "",
          "type": "address"
        }
      ],
      "stateMutability": "view",
      "type": "function"
    },
    {
      "inputs": [],
      "name": "rate",
      "outputs": [
        {
          "internalType": "uint256",
          "name": "",
          "type": "uint256"
        }
      ],
      "stateMutability": "view",
      "type": "function"
    },
    {
      "stateMutability": "payable",
      "type": "receive"
    }
  ],
  "bytecode": "0x60c060405234801561000f575f5ffd5b5060405161056538038061056583398101604081905261002e9161008b565b6001600160a01b0382166100555760405163d92e233d60e01b815260040160405180910390fd5b805f036100755760405163162908e360e11b815260040160405180910390fd5b6001600160a01b0390911660805260a0526100c2565b5f5f6040838503121561009c575f5ffd5b82516001600160a01b03811681146100b2575f5ffd5b6020939093015192949293505050565b60805160a05161046f6100f65f395f8181606e015261014401525f818160b4015281816101950152610289015261046f5ff3fe608060405260043610610036575f3560e01c80632695c4861461004a5780632c4e722e1461005d578063516bc450146100a3575f5ffd5b3661004657610044336100ee565b005b5f5ffd5b61004461005836600461038e565b6100ee565b348015610068575f5ffd5b506100907f000000000000000000000000000000000000000000000000000000000000000081565b6040519081526020015b60405180910390f35b3480156100ae575f5ffd5b506100d67f000000000000000000000000000000000000000000000000000000000000000081565b6040516001600160a01b03909116815260200161009a565b6001600160a01b0381166101155760405163d92e233d60e01b815260040160405180910390fd5b345f036101355760405163162908e360e11b815260040160405180910390fd5b5f670de0b6b3a76400006101697f0000000000000000000000000000000000000000000000000000000000000000346103bb565b61017391906103e4565b6040516370a0823160e01b81523060048201529091505f906001600160a01b037f000000000000000000000000000000000000000000000000000000000000000016906370a0823190602401602060405180830381865afa1580156101da573d5f5f3e3d5ffd5b505050506040513d601f19601f820116820180604052508101906101fe9190610403565b9050818110156102615760405162461bcd60e51b8152602060048201526024808201527f45786368616e67653a20696e73756666696369656e74204d4649206c697175696044820152636469747960e01b60648201526084015b60405180910390fd5b60405163a9059cbb60e01b81526001600160a01b038481166004830152602482018490525f917f00000000000000000000000000000000000000000000000000000000000000009091169063a9059cbb906044016020604051808303815f875af11580156102d1573d5f5f3e3d5ffd5b505050506040513d601f19601f820116820180604052508101906102f5919061041a565b9050806103445760405162461bcd60e51b815260206004820152601d60248201527f45786368616e67653a204d4649207472616e73666572206661696c65640000006044820152606401610258565b60408051348152602081018590526001600160a01b038616917ff761777482b4b40d2bcc0d050cfba6829900a2d8b3484bd0244ec0feeb3db504910160405180910390a250505050565b5f6020828403121561039e575f5ffd5b81356001600160a01b03811681146103b4575f5ffd5b9392505050565b80820281158282048414176103de57634e487b7160e01b5f52601160045260245ffd5b92915050565b5f826103fe57634e487b7160e01b5f52601260045260245ffd5b500490565b5f60208284031215610413575f5ffd5b5051919050565b5f6020828403121561042a575f5ffd5b815180151581146103b4575f5ffdfea264697066735822122064f1e81e082dc6c30a0f3419d93fb91d579de51b62a01defa2a12e0faabbd38b64736f6c634300081e0033",
  "linkReferences": {},
  "deployedLinkReferences": {},
  "immutableReferences": {
    "7": [
      {
        "length": 32,
        "start": 180
      },
      {
        "length": 32,
        "start": 405
      },
      {
        "length": 32,
        "start": 649
      }
    ],
    "10": [
      {
        "length": 32,
        "start": 110
      },
      {
        "length": 32,
        "start": 324
      }
    ]
  },
  "inputSourceName": "project/contracts/exchange/Exchange.sol",
  "buildInfoId": "solc-0_8_30-bb1416629a32472298408c7b566135ce244eefb6"
}