{
  "_format": "hh3-artifact-1",
  "contractName": "SavingsVault",
  "sourceName": "contracts/savings/SavingsVault.sol",
  "abi": [
    {
      "inputs": [
        {
          "internalType": "contract IMFI",
          "name": "_mfi",
          "type": "address"
        },
        {
          "internalType": "contract ISavingsNFT",
          "name": "_nft",
          "type": "address"
        },
        {
          "internalType": "address",
          "name": "_treasury",
          "type": "address"
        },
        {
          "internalType": "uint16",
          "name": "_feeBps",
          "type": "uint16"
        }
      ],
      "stateMutability": "nonpayable",
      "type": "constructor"
    },
    {
      "inputs": [],
      "name": "InvalidAmount",
      "type": "error"
    },
    {
      "inputs": [],
      "name": "NotMultipleOfRoseUnit",
      "type": "error"
    },
    {
      "inputs": [],
      "name": "NotTokenOwner",
      "type": "error"
    },
    {
      "inputs": [],
      "name": "ZeroAddress",
      "type": "error"
    },
    {
      "anonymous": false,
      "inputs": [
        {
          "indexed": true,
          "internalType": "address",
          "name": "user",
          "type": "address"
        },
        {
          "indexed": false,
          "internalType": "uint256",
          "name": "amountMFI",
          "type": "uint256"
        },
        {
          "indexed": false,
          "internalType": "uint256",
          "name": "rosesAdded",
          "type": "uint256"
        }
      ],
      "name": "Deposited",
      "type": "event"
    },
    {
      "anonymous": false,
      "inputs": [
        {
          "indexed": true,
          "internalType": "address",
          "name": "user",
          "type": "address"
        },
        {
          "indexed": true,
          "internalType": "uint256",
          "name": "tokenId",
          "type": "uint256"
        },
        {
          "indexed": false,
          "internalType": "uint8",
          "name": "roseCount",
          "type": "uint8"
        }
      ],
      "name": "NFTMinted",
      "type": "event"
    },
    {
      "anonymous": false,
      "inputs": [
        {
          "indexed": true,
          "internalType": "address",
          "name": "user",
          "type": "address"
        },
        {
          "indexed": true,
          "internalType": "uint256",
          "name": "tokenId",
          "type": "uint256"
        },
        {
          "indexed": false,
          "internalType": "uint8",
          "name": "oldCount",
          "type": "uint8"
        },
        {
          "indexed": false,
          "internalType": "uint8",
          "name": "newCount",
          "type": "uint8"
        }
      ],
      "name": "NFTUpgraded",
      "type": "event"
    },
    {
      "anonymous": false,
      "inputs": [
        {
          "indexed": true,
          "internalType": "address",
          "name": "user",
          "type": "address"
        },
        {
          "indexed": true,
          "internalType": "uint256",
          "name": "tokenId",
          "type": "uint256"
        },
        {
          "indexed": false,
          "internalType": "uint256",
          "name": "principal",
          "type": "uint256"
        },
        {
          "indexed": false,
          "internalType": "uint256",
          "name": "fee",
          "type": "uint256"
        },
        {
          "indexed": false,
          "internalType": "uint256",
          "name": "payout",
          "type": "uint256"
        }
      ],
      "name": "Redeemed",
      "type": "event"
    },
    {
      "inputs": [],
      "name": "ROSE_UNIT",
      "outputs": [
        {
          "internalType": "uint256",
          "name": "",
          "type": "uint256"
        }
      ],
      "stateMutability": "view",
      "type": "function"
    },
    {
      "inputs": [
        {
          "internalType": "address",
          "name": "",
          "type": "address"
        }
      ],
      "name": "activeBucketId",
      "outputs": [
        {
          "internalType": "uint256",
          "name": "",
          "type": "uint256"
        }
      ],
      "stateMutability": "view",
      "type": "function"
    },
    {
      "inputs": [
        {
          "internalType": "uint256",
          "name": "amount",
          "type": "uint256"
        }
      ],
      "name": "deposit",
      "outputs": [],
      "stateMutability": "nonpayable",
      "type": "function"
    },
    {
      "inputs": [],
      "name": "feeBps",
      "outputs": [
        {
          "internalType": "uint16",
          "name": "",
          "type": "uint16"
        }
      ],
      "stateMutability": "view",
      "type": "function"
    },
    {
      "inputs": [
        {
          "internalType": "address",
          "name": "user",
          "type": "address"
        }
      ],
      "name": "getUserDeposits",
      "outputs": [
        {
          "internalType": "uint256[]",
          "name": "",
          "type": "uint256[]"
        }
      ],
      "stateMutability": "view",
      "type": "function"
    },
    {
      "inputs": [],
      "name": "mfi",
      "outputs": [
        {
          "internalType": "contract IMFI",
          "name": "",
          "type": "address"
        }
      ],
      "stateMutability": "view",
      "type": "function"
    },
    {
      "inputs": [],
      "name": "nft",
      "outputs": [
        {
          "internalType": "contract ISavingsNFT",
          "name": "",
          "type": "address"
        }
      ],
      "stateMutability": "view",
      "type": "function"
    },
    {
      "inputs": [
        {
          "internalType": "address",
          "name": "from",
          "type": "address"
        },
        {
          "internalType": "address",
          "name": "to",
          "type": "address"
        },
        {
          "internalType": "uint256",
          "name": "tokenId",
          "type": "uint256"
        }
      ],
      "name": "onNftTransfer",
      "outputs": [],
      "stateMutability": "nonpayable",
      "type": "function"
    },
    {
      "inputs": [
        {
          "internalType": "uint256",
          "name": "tokenId",
          "type": "uint256"
        }
      ],
      "name": "previewRedeem",
      "outputs": [
        {
          "internalType": "uint256",
          "name": "principal",
          "type": "uint256"
        },
        {
          "internalType": "uint256",
          "name": "fee",
          "type": "uint256"
        },
        {
          "internalType": "uint256",
          "name": "payout",
          "type": "uint256"
        }
      ],
      "stateMutability": "view",
      "type": "function"
    },
    {
      "inputs": [
        {
          "internalType": "uint256",
          "name": "tokenId",
          "type": "uint256"
        }
      ],
      "name": "redeem",
      "outputs": [],
      "stateMutability": "nonpayable",
      "type": "function"
    },
    {
      "inputs": [],
      "name": "treasury",
      "outputs": [
        {
          "internalType": "address",
          "name": "",
          "type": "address"
        }
      ],
      "stateMutability": "view",
      "type": "function"
    }
  ],
  "bytecode": "0x610100604052348015610010575f5ffd5b506040516113f23803806113f283398101604081905261002f916100bd565b60015f556001600160a01b038416158061005057506001600160a01b038316155b8061006257506001600160a01b038216155b156100805760405163d92e233d60e01b815260040160405180910390fd5b6001600160a01b0393841660805291831660a05290911660e05261ffff1660c05261011f565b6001600160a01b03811681146100ba575f5ffd5b50565b5f5f5f5f608085870312156100d0575f5ffd5b84516100db816100a6565b60208601519094506100ec816100a6565b60408601519093506100fd816100a6565b606086015190925061ffff81168114610114575f5ffd5b939692955090935050565b60805160a05160c05160e05161124d6101a55f395f81816101cf0152610d7701525f818160e101526103bd01525f818161013b0152818161030e0152818161040d015281816107e301528181610907015281816109e301528181610b060152610bc801525f81816101a80152818161068101528181610da80152610e83015261124d5ff3fe608060405234801561000f575f5ffd5b50600436106100a6575f3560e01c8063516bc4501161006e578063516bc450146101a357806361d027b3146101ca5780637e5f1173146101f1578063950b6d3f14610206578063b6b55f2514610215578063db006a7514610228575f5ffd5b806314b2b750146100aa57806324a9d853146100dc5780632a5bf6d21461011657806347ccca02146101365780634cdad50614610175575b5f5ffd5b6100c96100b8366004611002565b60016020525f908152604090205481565b6040519081526020015b60405180910390f35b6101037f000000000000000000000000000000000000000000000000000000000000000081565b60405161ffff90911681526020016100d3565b610129610124366004611002565b61023b565b6040516100d39190611024565b61015d7f000000000000000000000000000000000000000000000000000000000000000081565b6040516001600160a01b0390911681526020016100d3565b610188610183366004611066565b610308565b604080519384526020840192909252908201526060016100d3565b61015d7f000000000000000000000000000000000000000000000000000000000000000081565b61015d7f000000000000000000000000000000000000000000000000000000000000000081565b6102046101ff36600461107d565b610402565b005b6100c9678ac7230489e8000081565b610204610223366004611066565b610605565b610204610236366004611066565b610ade565b60606001600160a01b03821661027d575f5b604051908082528060200260200182016040528015610276578160200160208202803683370190505b5092915050565b6001600160a01b0382165f9081526002602052604081205490036102a1575f61024d565b6001600160a01b0382165f90815260026020908152604091829020805483518184028101840190945280845290918301828280156102fc57602002820191905f5260205f20905b8154815260200190600101908083116102e8575b50505050509050919050565b5f5f5f5f7f00000000000000000000000000000000000000000000000000000000000000006001600160a01b03166311f847ce866040518263ffffffff1660e01b815260040161035a91815260200190565b602060405180830381865afa158015610375573d5f5f3e3d5ffd5b505050506040513d601f19601f8201168201806040525081019061039991906110bb565b90506103b0678ac7230489e8000060ff83166110ef565b93506127106103e361ffff7f000000000000000000000000000000000000000000000000000000000000000016866110ef565b6103ed9190611120565b92506103f98385611133565b93959294505050565b336001600160a01b037f0000000000000000000000000000000000000000000000000000000000000000161461046a5760405162461bcd60e51b81526020600482015260086024820152671bdb9b1e481b999d60c21b60448201526064015b60405180910390fd5b5f818152600360205260409020548015610598575f61048a600183611133565b6001600160a01b0386165f90815260026020526040812054919250906104b290600190611133565b905080821461054a576001600160a01b0386165f9081526002602052604081208054839081106104e4576104e4611146565b905f5260205f20015490508060025f896001600160a01b03166001600160a01b031681526020019081526020015f20848154811061052457610524611146565b5f9182526020909120015561053a83600161115a565b5f91825260036020526040909120555b6001600160a01b0386165f9081526002602052604090208054806105705761057061116d565b5f828152602080822083015f1990810183905590920190925585825260039052604081205550505b6001600160a01b038084165f90815260026020908152604080832080546001818101835582865284862090910188905590548785526003845282852055938816835292905220548290036105ff576001600160a01b0384165f908152600160205260408120555b50505050565b61060d610f97565b805f0361062d5760405163162908e360e11b815260040160405180910390fd5b61063f678ac7230489e8000082611181565b1561065d57604051636ec34ab760e11b815260040160405180910390fd5b6040516323b872dd60e01b8152336004820152306024820152604481018290525f907f00000000000000000000000000000000000000000000000000000000000000006001600160a01b0316906323b872dd906064016020604051808303815f875af11580156106cf573d5f5f3e3d5ffd5b505050506040513d601f19601f820116820180604052508101906106f39190611194565b9050806107425760405162461bcd60e51b815260206004820152601760248201527f4d4649207472616e7366657246726f6d206661696c65640000000000000000006044820152606401610461565b5f610755678ac7230489e8000084611120565b604080518581526020810183905291925033917f73a19dd210f1a7f902193214c0ee91dd35ee5b4d920cba8d519eca65a7b488ca910160405180910390a2335f908152600160205260409020545b8115610acf57805f036108ef575f600a83116107bf57826107c2565b600a5b604051630348ab1560e51b815233600482015260ff821660248201529091507f00000000000000000000000000000000000000000000000000000000000000006001600160a01b03169063691562a0906044016020604051808303815f875af1158015610831573d5f5f3e3d5ffd5b505050506040513d601f19601f8201168201806040525081019061085591906111b3565b335f818152600160208181526040808420869055600282528084208054938401815580855282852090930186905591548584526003825292829020929092555160ff8516815292945084927f5716925f2a990bb51e5354134a606547c86dc787be1a2729eef575fd0c2bea1e910160405180910390a36108d860ff821684611133565b92508060ff16600a036108e9575f91505b506107a3565b6040516308fc23e760e11b8152600481018290525f907f00000000000000000000000000000000000000000000000000000000000000006001600160a01b0316906311f847ce90602401602060405180830381865afa158015610954573d5f5f3e3d5ffd5b505050506040513d601f19601f8201168201806040525081019061097891906110bb565b90508060ff16600a0361099d575050335f9081526001602052604081208190556107a3565b5f6109a982600a6111ca565b90505f8160ff1685116109bc57846109c1565b8160ff165b604051633eff2dc960e11b81526004810186905260ff821660248201529091507f00000000000000000000000000000000000000000000000000000000000000006001600160a01b031690637dfe5b92906044015f604051808303815f87803b158015610a2c575f5ffd5b505af1158015610a3e573d5f5f3e3d5ffd5b508692503391507f20eeafca9c3b4156772eb370fcdaae29723950376a0e901efb937b9d2bad35f5905085610a7385826111e3565b6040805160ff93841681529290911660208301520160405180910390a3610a9d60ff821686611133565b9450610aa981846111e3565b60ff16600a03610ac757335f90815260016020526040812081905593505b5050506107a3565b505050610adb60015f55565b50565b610ae6610f97565b6040516331a9108f60e11b81526004810182905233906001600160a01b037f00000000000000000000000000000000000000000000000000000000000000001690636352211e90602401602060405180830381865afa158015610b4b573d5f5f3e3d5ffd5b505050506040513d601f19601f82011682018060405250810190610b6f91906111fc565b6001600160a01b031614610b96576040516359dc379f60e01b815260040160405180910390fd5b5f5f5f610ba284610308565b604051630852cd8d60e31b81526004810188905292955090935091506001600160a01b037f000000000000000000000000000000000000000000000000000000000000000016906342966c68906024015f604051808303815f87803b158015610c09575f5ffd5b505af1158015610c1b573d5f5f3e3d5ffd5b5050335f908152600160205260409020548690039150610c47905057335f908152600160205260408120555b5f848152600360205260409020548015610d5a575f610c67600183611133565b335f9081526002602052604081205491925090610c8690600190611133565b9050808214610d1557335f908152600260205260408120805483908110610caf57610caf611146565b905f5260205f20015490508060025f336001600160a01b03166001600160a01b031681526020019081526020015f208481548110610cef57610cef611146565b5f91825260209091200155610d0583600161115a565b5f91825260036020526040909120555b335f908152600260205260409020805480610d3257610d3261116d565b5f828152602080822083015f1990810183905590920190925588825260039052604081205550505b8215610e655760405163a9059cbb60e01b81526001600160a01b037f000000000000000000000000000000000000000000000000000000000000000081166004830152602482018590525f917f00000000000000000000000000000000000000000000000000000000000000009091169063a9059cbb906044016020604051808303815f875af1158015610df0573d5f5f3e3d5ffd5b505050506040513d601f19601f82011682018060405250810190610e149190611194565b905080610e635760405162461bcd60e51b815260206004820152601760248201527f4d464920666565207472616e73666572206661696c65640000000000000000006044820152606401610461565b505b60405163a9059cbb60e01b8152336004820152602481018390525f907f00000000000000000000000000000000000000000000000000000000000000006001600160a01b03169063a9059cbb906044016020604051808303815f875af1158015610ed1573d5f5f3e3d5ffd5b505050506040513d601f19601f82011682018060405250810190610ef59190611194565b905080610f445760405162461bcd60e51b815260206004820152601a60248201527f4d4649207061796f7574207472616e73666572206661696c65640000000000006044820152606401610461565b6040805186815260208101869052908101849052869033907f76cd0cedf979345ca241ce6de696a520a8efc860c6c10d9db2a7953307c237fc9060600160405180910390a35050505050610adb60015f55565b60025f5403610fe85760405162461bcd60e51b815260206004820152601f60248201527f5265656e7472616e637947756172643a207265656e7472616e742063616c6c006044820152606401610461565b60025f55565b6001600160a01b0381168114610adb575f5ffd5b5f60208284031215611012575f5ffd5b813561101d81610fee565b9392505050565b602080825282518282018190525f918401906040840190835b8181101561105b57835183526020938401939092019160010161103d565b509095945050505050565b5f60208284031215611076575f5ffd5b5035919050565b5f5f5f6060848603121561108f575f5ffd5b833561109a81610fee565b925060208401356110aa81610fee565b929592945050506040919091013590565b5f602082840312156110cb575f5ffd5b815160ff8116811461101d575f5ffd5b634e487b7160e01b5f52601160045260245ffd5b8082028115828204841417611106576111066110db565b92915050565b634e487b7160e01b5f52601260045260245ffd5b5f8261112e5761112e61110c565b500490565b81810381811115611106576111066110db565b634e487b7160e01b5f52603260045260245ffd5b80820180821115611106576111066110db565b634e487b7160e01b5f52603160045260245ffd5b5f8261118f5761118f61110c565b500690565b5f602082840312156111a4575f5ffd5b8151801515811461101d575f5ffd5b5f602082840312156111c3575f5ffd5b5051919050565b60ff8281168282160390811115611106576111066110db565b60ff8181168382160190811115611106576111066110db565b5f6020828403121561120c575f5ffd5b815161101d81610fee56fea26469706673582212205a20436bd2a79b8234ae11cf3e5f2ccfefc93791e8164c3858ddc96333cd623964736f6c634300081e0033",
  "linkReferences": {},
  "deployedLinkReferences": {},
  "immutableReferences": {
    "184": [
      {
        "length": 32,
        "start": 424
      },
      {
        "length": 32,
        "start": 1665
      },
      {
        "length": 32,
        "start": 3496
      },
      {
        "length": 32,
        "start": 3715
      }
    ],
    "187": [
      {
        "length": 32,
        "start": 315
      },
      {
        "length": 32,
        "start": 782
      },
      {
        "length": 32,
        "start": 1037
      },
      {
        "length": 32,
        "start": 2019
      },
      {
        "length": 32,
        "start": 2311
      },
      {
        "length": 32,
        "start": 2531
      },
      {
        "length": 32,
        "start": 2822
      },
      {
        "length": 32,
        "start": 3016
      }
    ],
    "189": [
      {
        "length": 32,
        "start": 225
      },
      {
        "length": 32,
        "start": 957
      }
    ],
    "191": [
      {
        "length": 32,
        "start": 463
      },
      {
        "length": 32,
        "start": 3447
      }
    ]
  },
  "inputSourceName": "project/contracts/savings/SavingsVault.sol",
  "buildInfoId": "solc-0_8_30-dd42ae4f8986207d8c04c8493ba258a6f69ce2e2"
}