{
  "_format": "hh3-artifact-1",
  "contractName": "SavingsNFT",
  "sourceName": "contracts/savings/SavingsNFT.sol",
  "abi": [
    {
      "inputs": [],
      "stateMutability": "nonpayable",
      "type": "constructor"
    },
    {
      "inputs": [],
      "name": "ExceedsMaxRoses",
      "type": "error"
    },
    {
      "inputs": [],
      "name": "InvalidAmount",
      "type": "error"
    },
    {
      "inputs": [],
      "name": "Unauthorized",
      "type": "error"
    },
    {
      "inputs": [],
      "name": "ZeroAddress",
      "type": "error"
    },
    {
      "anonymous": false,
      "inputs": [
        {
          "indexed": true,
          "internalType": "address",
          "name": "owner",
          "type": "address"
        },
        {
          "indexed": true,
          "internalType": "address",
          "name": "approved",
          "type": "address"
        },
        {
          "indexed": true,
          "internalType": "uint256",
          "name": "tokenId",
          "type": "uint256"
        }
      ],
      "name": "Approval",
      "type": "event"
    },
    {
      "anonymous": false,
      "inputs": [
        {
          "indexed": true,
          "internalType": "address",
          "name": "owner",
          "type": "address"
        },
        {
          "indexed": true,
          "internalType": "address",
          "name": "operator",
          "type": "address"
        },
        {
          "indexed": false,
          "internalType": "bool",
          "name": "approved",
          "type": "bool"
        }
      ],
      "name": "ApprovalForAll",
      "type": "event"
    },
    {
      "anonymous": false,
      "inputs": [
        {
          "indexed": true,
          "internalType": "uint256",
          "name": "tokenId",
          "type": "uint256"
        }
      ],
      "name": "Burned",
      "type": "event"
    },
    {
      "anonymous": false,
      "inputs": [
        {
          "indexed": true,
          "internalType": "address",
          "name": "to",
          "type": "address"
        },
        {
          "indexed": true,
          "internalType": "uint256",
          "name": "tokenId",
          "type": "uint256"
        },
        {
          "indexed": false,
          "internalType": "uint8",
          "name": "initialRoses",
          "type": "uint8"
        }
      ],
      "name": "Minted",
      "type": "event"
    },
    {
      "anonymous": false,
      "inputs": [
        {
          "indexed": true,
          "internalType": "address",
          "name": "from",
          "type": "address"
        },
        {
          "indexed": true,
          "internalType": "address",
          "name": "to",
          "type": "address"
        },
        {
          "indexed": true,
          "internalType": "uint256",
          "name": "tokenId",
          "type": "uint256"
        }
      ],
      "name": "Transfer",
      "type": "event"
    },
    {
      "anonymous": false,
      "inputs": [
        {
          "indexed": true,
          "internalType": "uint256",
          "name": "tokenId",
          "type": "uint256"
        },
        {
          "indexed": false,
          "internalType": "uint8",
          "name": "oldCount",
          "type": "uint8"
        },
        {
          "indexed": false,
          "internalType": "uint8",
          "name": "newCount",
          "type": "uint8"
        }
      ],
      "name": "Upgraded",
      "type": "event"
    },
    {
      "anonymous": false,
      "inputs": [
        {
          "indexed": true,
          "internalType": "address",
          "name": "vault",
          "type": "address"
        }
      ],
      "name": "VaultSet",
      "type": "event"
    },
    {
      "inputs": [],
      "name": "MAX_ROSES",
      "outputs": [
        {
          "internalType": "uint8",
          "name": "",
          "type": "uint8"
        }
      ],
      "stateMutability": "view",
      "type": "function"
    },
    {
      "inputs": [
        {
          "internalType": "address",
          "name": "to",
          "type": "address"
        },
        {
          "internalType": "uint256",
          "name": "tokenId",
          "type": "uint256"
        }
      ],
      "name": "approve",
      "outputs": [],
      "stateMutability": "nonpayable",
      "type": "function"
    },
    {
      "inputs": [
        {
          "internalType": "address",
          "name": "owner",
          "type": "address"
        }
      ],
      "name": "balanceOf",
      "outputs": [
        {
          "internalType": "uint256",
          "name": "",
          "type": "uint256"
        }
      ],
      "stateMutability": "view",
      "type": "function"
    },
    {
      "inputs": [
        {
          "internalType": "uint256",
          "name": "tokenId",
          "type": "uint256"
        }
      ],
      "name": "burn",
      "outputs": [],
      "stateMutability": "nonpayable",
      "type": "function"
    },
    {
      "inputs": [
        {
          "internalType": "uint256",
          "name": "tokenId",
          "type": "uint256"
        }
      ],
      "name": "getApproved",
      "outputs": [
        {
          "internalType": "address",
          "name": "",
          "type": "address"
        }
      ],
      "stateMutability": "view",
      "type": "function"
    },
    {
      "inputs": [],
      "name": "initializer",
      "outputs": [
        {
          "internalType": "address",
          "name": "",
          "type": "address"
        }
      ],
      "stateMutability": "view",
      "type": "function"
    },
    {
      "inputs": [
        {
          "internalType": "address",
          "name": "owner",
          "type": "address"
        },
        {
          "internalType": "address",
          "name": "operator",
          "type": "address"
        }
      ],
      "name": "isApprovedForAll",
      "outputs": [
        {
          "internalType": "bool",
          "name": "",
          "type": "bool"
        }
      ],
      "stateMutability": "view",
      "type": "function"
    },
    {
      "inputs": [
        {
          "internalType": "uint256",
          "name": "tokenId",
          "type": "uint256"
        }
      ],
      "name": "isFull",
      "outputs": [
        {
          "internalType": "bool",
          "name": "",
          "type": "bool"
        }
      ],
      "stateMutability": "view",
      "type": "function"
    },
    {
      "inputs": [
        {
          "internalType": "address",
          "name": "to",
          "type": "address"
        },
        {
          "internalType": "uint8",
          "name": "initialRoses",
          "type": "uint8"
        }
      ],
      "name": "mint",
      "outputs": [
        {
          "internalType": "uint256",
          "name": "tokenId",
          "type": "uint256"
        }
      ],
      "stateMutability": "nonpayable",
      "type": "function"
    },
    {
      "inputs": [],
      "name": "name",
      "outputs": [
        {
          "internalType": "string",
          "name": "",
          "type": "string"
        }
      ],
      "stateMutability": "view",
      "type": "function"
    },
    {
      "inputs": [
        {
          "internalType": "uint256",
          "name": "tokenId",
          "type": "uint256"
        }
      ],
      "name": "ownerOf",
      "outputs": [
        {
          "internalType": "address",
          "name": "",
          "type": "address"
        }
      ],
      "stateMutability": "view",
      "type": "function"
    },
    {
      "inputs": [
        {
          "internalType": "uint256",
          "name": "tokenId",
          "type": "uint256"
        }
      ],
      "name": "roseCountOf",
      "outputs": [
        {
          "internalType": "uint8",
          "name": "",
          "type": "uint8"
        }
      ],
      "stateMutability": "view",
      "type": "function"
    },
    {
      "inputs": [
        {
          "internalType": "address",
          "name": "from",
          "type": "address"
        },
        {
          "internalType": "address",
          "name": "to",
          "type": "address"
        },
        {
          "internalType": "uint256",
          "name": "tokenId",
          "type": "uint256"
        }
      ],
      "name": "safeTransferFrom",
      "outputs": [],
      "stateMutability": "nonpayable",
      "type": "function"
    },
    {
      "inputs": [
        {
          "internalType": "address",
          "name": "from",
          "type": "address"
        },
        {
          "internalType": "address",
          "name": "to",
          "type": "address"
        },
        {
          "internalType": "uint256",
          "name": "tokenId",
          "type": "uint256"
        },
        {
          "internalType": "bytes",
          "name": "data",
          "type": "bytes"
        }
      ],
      "name": "safeTransferFrom",
      "outputs": [],
      "stateMutability": "nonpayable",
      "type": "function"
    },
    {
      "inputs": [
        {
          "internalType": "address",
          "name": "operator",
          "type": "address"
        },
        {
          "internalType": "bool",
          "name": "approved",
          "type": "bool"
        }
      ],
      "name": "setApprovalForAll",
      "outputs": [],
      "stateMutability": "nonpayable",
      "type": "function"
    },
    {
      "inputs": [
        {
          "internalType": "address",
          "name": "newVault",
          "type": "address"
        }
      ],
      "name": "setVaultOnce",
      "outputs": [],
      "stateMutability": "nonpayable",
      "type": "function"
    },
    {
      "inputs": [
        {
          "internalType": "bytes4",
          "name": "interfaceId",
          "type": "bytes4"
        }
      ],
      "name": "supportsInterface",
      "outputs": [
        {
          "internalType": "bool",
          "name": "",
          "type": "bool"
        }
      ],
      "stateMutability": "view",
      "type": "function"
    },
    {
      "inputs": [],
      "name": "symbol",
      "outputs": [
        {
          "internalType": "string",
          "name": "",
          "type": "string"
        }
      ],
      "stateMutability": "view",
      "type": "function"
    },
    {
      "inputs": [
        {
          "internalType": "uint256",
          "name": "tokenId",
          "type": "uint256"
        }
      ],
      "name": "tokenURI",
      "outputs": [
        {
          "internalType": "string",
          "name": "",
          "type": "string"
        }
      ],
      "stateMutability": "view",
      "type": "function"
    },
    {
      "inputs": [
        {
          "internalType": "address",
          "name": "from",
          "type": "address"
        },
        {
          "internalType": "address",
          "name": "to",
          "type": "address"
        },
        {
          "internalType": "uint256",
          "name": "tokenId",
          "type": "uint256"
        }
      ],
      "name": "transferFrom",
      "outputs": [],
      "stateMutability": "nonpayable",
      "type": "function"
    },
    {
      "inputs": [
        {
          "internalType": "uint256",
          "name": "tokenId",
          "type": "uint256"
        },
        {
          "internalType": "uint8",
          "name": "addRoses",
          "type": "uint8"
        }
      ],
      "name": "upgrade",
      "outputs": [],
      "stateMutability": "nonpayable",
      "type": "function"
    },
    {
      "inputs": [],
      "name": "vault",
      "outputs": [
        {
          "internalType": "address",
          "name": "",
          "type": "address"
        }
      ],
      "stateMutability": "view",
      "type": "function"
    }
  ],
  "bytecode": "0x60a060405234801561000f575f5ffd5b506040518060400160405280601381526020017f4d6177617220536176696e67732042756b6574000000000000000000000000008152506040518060400160405280600381526020016226a9a160e91b815250815f90816100709190610121565b50600161007d8282610121565b505033608052506101db565b634e487b7160e01b5f52604160045260245ffd5b600181811c908216806100b157607f821691505b6020821081036100cf57634e487b7160e01b5f52602260045260245ffd5b50919050565b601f82111561011c57805f5260205f20601f840160051c810160208510156100fa5750805b601f840160051c820191505b81811015610119575f8155600101610106565b50505b505050565b81516001600160401b0381111561013a5761013a610089565b61014e81610148845461009d565b846100d5565b6020601f821160018114610180575f83156101695750848201515b5f19600385901b1c1916600184901b178455610119565b5f84815260208120601f198516915b828110156101af578785015182556020948501946001909201910161018f565b50848210156101cc57868401515f19600387901b60f8161c191681555b50505050600190811b01905550565b6080516118186101fa5f395f81816102d2015261063901526118185ff3fe608060405234801561000f575f5ffd5b506004361061013d575f3560e01c8063691562a0116100b45780639ce110d7116100795780639ce110d7146102cd578063a22cb465146102f4578063b88d4fde14610307578063c87b56dd1461031a578063e985e9c51461032d578063fbfa77cf14610340575f5ffd5b8063691562a01461025957806370a082311461027a5780637dfe5b921461028d57806390e53d1a146102a057806395d89b41146102c5575f5ffd5b806323b872dd1161010557806323b872dd146101f25780633590c7a51461020557806342842e0e1461020d57806342966c681461022057806345313084146102335780636352211e14610246575f5ffd5b806301ffc9a71461014157806306fdde0314610169578063081812fc1461017e578063095ea7b3146101a957806311f847ce146101be575b5f5ffd5b61015461014f366004611369565b610353565b60405190151581526020015b60405180910390f35b6101716103a4565b60405161016091906113b2565b61019161018c3660046113c4565b610433565b6040516001600160a01b039091168152602001610160565b6101bc6101b73660046113f6565b610458565b005b6101e06101cc3660046113c4565b5f9081526008602052604090205460ff1690565b60405160ff9091168152602001610160565b6101bc61020036600461141e565b610571565b6101e0600a81565b6101bc61021b36600461141e565b6105a2565b6101bc61022e3660046113c4565b6105bc565b6101bc610241366004611458565b61062e565b6101916102543660046113c4565b61070f565b61026c610267366004611481565b61076e565b604051908152602001610160565b61026c610288366004611458565b610872565b6101bc61029b3660046114b2565b6108f6565b6101546102ae3660046113c4565b5f9081526008602052604090205460ff16600a1490565b6101716109eb565b6101917f000000000000000000000000000000000000000000000000000000000000000081565b6101bc6103023660046114d3565b6109fa565b6101bc610315366004611520565b610a09565b6101716103283660046113c4565b610a41565b61015461033b3660046115fd565b610ad0565b600754610191906001600160a01b031681565b5f6001600160e01b031982166380ac58cd60e01b148061038357506001600160e01b03198216635b5e139f60e01b145b8061039e57506301ffc9a760e01b6001600160e01b03198316145b92915050565b60605f80546103b290611625565b80601f01602080910402602001604051908101604052809291908181526020018280546103de90611625565b80156104295780601f1061040057610100808354040283529160200191610429565b820191905f5260205f20905b81548152906001019060200180831161040c57829003601f168201915b5050505050905090565b5f61043d82610afd565b505f908152600460205260409020546001600160a01b031690565b5f6104628261070f565b9050806001600160a01b0316836001600160a01b0316036104d45760405162461bcd60e51b815260206004820152602160248201527f4552433732313a20617070726f76616c20746f2063757272656e74206f776e656044820152603960f91b60648201526084015b60405180910390fd5b336001600160a01b03821614806104f057506104f08133610ad0565b6105625760405162461bcd60e51b815260206004820152603d60248201527f4552433732313a20617070726f76652063616c6c6572206973206e6f7420746f60448201527f6b656e206f776e6572206f7220617070726f76656420666f7220616c6c00000060648201526084016104cb565b61056c8383610b5e565b505050565b61057b3382610bcb565b6105975760405162461bcd60e51b81526004016104cb9061165d565b61056c838383610c29565b61056c83838360405180602001604052805f815250610a09565b6007546001600160a01b031633146105e6576040516282b42960e81b815260040160405180910390fd5b6105ef81610d8b565b5f81815260086020526040808220805460ff191690555182917fd83c63197e8e676d80ab0122beba9a9d20f3828839e9a1d6fe81d242e9cd7e6e91a250565b336001600160a01b037f00000000000000000000000000000000000000000000000000000000000000001614610676576040516282b42960e81b815260040160405180910390fd5b6001600160a01b03811661069d5760405163d92e233d60e01b815260040160405180910390fd5b6007546001600160a01b0316156106c6576040516282b42960e81b815260040160405180910390fd5b600780546001600160a01b0319166001600160a01b0383169081179091556040517fe7ae49f883c825b05681b3e00e8be6fdea9ed2a8a45e4c6ecb9390fc44cce615905f90a250565b5f818152600260205260408120546001600160a01b03168061039e5760405162461bcd60e51b8152602060048201526018602482015277115490cdcc8c4e881a5b9d985b1a59081d1bdad95b88125160421b60448201526064016104cb565b6007545f906001600160a01b0316331461079a576040516282b42960e81b815260040160405180910390fd5b6001600160a01b0383166107c15760405163d92e233d60e01b815260040160405180910390fd5b60ff821615806107d45750600a60ff8316115b156107f25760405163f72b6ac960e01b815260040160405180910390fd5b610800600680546001019055565b5060065461080e8382610e1d565b5f81815260086020908152604091829020805460ff191660ff8616908117909155915191825282916001600160a01b038616917fdcb23284f3935b5557998e99dcc286e29744c5000723d99eecd5d6f5694f6e11910160405180910390a392915050565b5f6001600160a01b0382166108db5760405162461bcd60e51b815260206004820152602960248201527f4552433732313a2061646472657373207a65726f206973206e6f7420612076616044820152683634b21037bbb732b960b91b60648201526084016104cb565b506001600160a01b03165f9081526003602052604090205490565b6007546001600160a01b03163314610920576040516282b42960e81b815260040160405180910390fd5b8060ff165f036109435760405163162908e360e11b815260040160405180910390fd5b5f8281526008602052604081205460ff9081169190610964908416836116aa565b9050600a8111156109885760405163f72b6ac960e01b815260040160405180910390fd5b5f84815260086020908152604091829020805460ff191660ff858116918217909255835191861682529181019190915285917fe1bb1745426d461ddc0424f57bab3bcb4a468247fc2013b8f1d1c2fc944929ce910160405180910390a250505050565b6060600180546103b290611625565b610a05338383610e36565b5050565b610a133383610bcb565b610a2f5760405162461bcd60e51b81526004016104cb9061165d565b610a3b84848484610f03565b50505050565b6060610a4c82610afd565b5f610a80604080518082019091526016815275697066733a2f2f6d657461646174612d6d617761722f60501b602082015290565b90505f815111610a9e5760405180602001604052805f815250610ac9565b80610aa884610f36565b604051602001610ab99291906116e0565b6040516020818303038152906040525b9392505050565b6001600160a01b039182165f90815260056020908152604080832093909416825291909152205460ff1690565b5f818152600260205260409020546001600160a01b0316610b5b5760405162461bcd60e51b8152602060048201526018602482015277115490cdcc8c4e881a5b9d985b1a59081d1bdad95b88125160421b60448201526064016104cb565b50565b5f81815260046020526040902080546001600160a01b0319166001600160a01b0384169081179091558190610b928261070f565b6001600160a01b03167f8c5be1e5ebec7d5bd14f71427d1e84f3dd0314c0f7b2291e5b200ac8c7c3b92560405160405180910390a45050565b5f5f610bd68361070f565b9050806001600160a01b0316846001600160a01b03161480610bfd5750610bfd8185610ad0565b80610c215750836001600160a01b0316610c1684610433565b6001600160a01b0316145b949350505050565b826001600160a01b0316610c3c8261070f565b6001600160a01b031614610c625760405162461bcd60e51b81526004016104cb906116f4565b6001600160a01b038216610cc45760405162461bcd60e51b8152602060048201526024808201527f4552433732313a207472616e7366657220746f20746865207a65726f206164646044820152637265737360e01b60648201526084016104cb565b826001600160a01b0316610cd78261070f565b6001600160a01b031614610cfd5760405162461bcd60e51b81526004016104cb906116f4565b5f81815260046020908152604080832080546001600160a01b03199081169091556001600160a01b038781168086526003855283862080545f1901905590871680865283862080546001019055868652600290945282852080549092168417909155905184937fddf252ad1be2c89b69c2b068fc378daa952ba7f163c4a11628f55a4df523b3ef91a4505050565b5f610d958261070f565b9050610da08261070f565b5f83815260046020908152604080832080546001600160a01b03199081169091556001600160a01b0385168085526003845282852080545f190190558785526002909352818420805490911690555192935084927fddf252ad1be2c89b69c2b068fc378daa952ba7f163c4a11628f55a4df523b3ef908390a45050565b610a05828260405180602001604052805f815250610fc6565b816001600160a01b0316836001600160a01b031603610e975760405162461bcd60e51b815260206004820152601960248201527f4552433732313a20617070726f766520746f2063616c6c65720000000000000060448201526064016104cb565b6001600160a01b038381165f81815260056020908152604080832094871680845294825291829020805460ff191686151590811790915591519182527f17307eab39ab6107e8899845ad3d59bd9653f200f220920489ca2b5937696c31910160405180910390a3505050565b610f0e848484610c29565b610f1a84848484610ff8565b610a3b5760405162461bcd60e51b81526004016104cb90611739565b60605f610f42836110f5565b60010190505f8167ffffffffffffffff811115610f6157610f6161150c565b6040519080825280601f01601f191660200182016040528015610f8b576020820181803683370190505b5090508181016020015b5f19016f181899199a1a9b1b9c1cb0b131b232b360811b600a86061a8153600a8504945084610f9557509392505050565b610fd083836111cc565b610fdc5f848484610ff8565b61056c5760405162461bcd60e51b81526004016104cb90611739565b5f6001600160a01b0384163b156110ea57604051630a85bd0160e11b81526001600160a01b0385169063150b7a029061103b90339089908890889060040161178b565b6020604051808303815f875af1925050508015611075575060408051601f3d908101601f19168201909252611072918101906117c7565b60015b6110d0573d8080156110a2576040519150601f19603f3d011682016040523d82523d5f602084013e6110a7565b606091505b5080515f036110c85760405162461bcd60e51b81526004016104cb90611739565b805181602001fd5b6001600160e01b031916630a85bd0160e11b149050610c21565b506001949350505050565b5f8072184f03e93ff9f4daa797ed6e38ed64bf6a1f0160401b83106111335772184f03e93ff9f4daa797ed6e38ed64bf6a1f0160401b830492506040015b6d04ee2d6d415b85acef8100000000831061115f576d04ee2d6d415b85acef8100000000830492506020015b662386f26fc10000831061117d57662386f26fc10000830492506010015b6305f5e1008310611195576305f5e100830492506008015b61271083106111a957612710830492506004015b606483106111bb576064830492506002015b600a831061039e5760010192915050565b6001600160a01b0382166112225760405162461bcd60e51b815260206004820181905260248201527f4552433732313a206d696e7420746f20746865207a65726f206164647265737360448201526064016104cb565b5f818152600260205260409020546001600160a01b0316156112865760405162461bcd60e51b815260206004820152601c60248201527f4552433732313a20746f6b656e20616c7265616479206d696e7465640000000060448201526064016104cb565b5f818152600260205260409020546001600160a01b0316156112ea5760405162461bcd60e51b815260206004820152601c60248201527f4552433732313a20746f6b656e20616c7265616479206d696e7465640000000060448201526064016104cb565b6001600160a01b0382165f81815260036020908152604080832080546001019055848352600290915280822080546001600160a01b0319168417905551839291907fddf252ad1be2c89b69c2b068fc378daa952ba7f163c4a11628f55a4df523b3ef908290a45050565b6001600160e01b031981168114610b5b575f5ffd5b5f60208284031215611379575f5ffd5b8135610ac981611354565b5f81518084528060208401602086015e5f602082860101526020601f19601f83011685010191505092915050565b602081525f610ac96020830184611384565b5f602082840312156113d4575f5ffd5b5035919050565b80356001600160a01b03811681146113f1575f5ffd5b919050565b5f5f60408385031215611407575f5ffd5b611410836113db565b946020939093013593505050565b5f5f5f60608486031215611430575f5ffd5b611439846113db565b9250611447602085016113db565b929592945050506040919091013590565b5f60208284031215611468575f5ffd5b610ac9826113db565b803560ff811681146113f1575f5ffd5b5f5f60408385031215611492575f5ffd5b61149b836113db565b91506114a960208401611471565b90509250929050565b5f5f604083850312156114c3575f5ffd5b823591506114a960208401611471565b5f5f604083850312156114e4575f5ffd5b6114ed836113db565b915060208301358015158114611501575f5ffd5b809150509250929050565b634e487b7160e01b5f52604160045260245ffd5b5f5f5f5f60808587031215611533575f5ffd5b61153c856113db565b935061154a602086016113db565b925060408501359150606085013567ffffffffffffffff81111561156c575f5ffd5b8501601f8101871361157c575f5ffd5b803567ffffffffffffffff8111156115965761159661150c565b604051601f8201601f19908116603f0116810167ffffffffffffffff811182821017156115c5576115c561150c565b6040528181528282016020018910156115dc575f5ffd5b816020840160208301375f6020838301015280935050505092959194509250565b5f5f6040838503121561160e575f5ffd5b611617836113db565b91506114a9602084016113db565b600181811c9082168061163957607f821691505b60208210810361165757634e487b7160e01b5f52602260045260245ffd5b50919050565b6020808252602d908201527f4552433732313a2063616c6c6572206973206e6f7420746f6b656e206f776e6560408201526c1c881bdc88185c1c1c9bdd9959609a1b606082015260800190565b8082018082111561039e57634e487b7160e01b5f52601160045260245ffd5b5f81518060208401855e5f93019283525090919050565b5f610c216116ee83866116c9565b846116c9565b60208082526025908201527f4552433732313a207472616e736665722066726f6d20696e636f72726563742060408201526437bbb732b960d91b606082015260800190565b60208082526032908201527f4552433732313a207472616e7366657220746f206e6f6e20455243373231526560408201527131b2b4bb32b91034b6b83632b6b2b73a32b960711b606082015260800190565b6001600160a01b03858116825284166020820152604081018390526080606082018190525f906117bd90830184611384565b9695505050505050565b5f602082840312156117d7575f5ffd5b8151610ac98161135456fea264697066735822122060f903551d4c8f8af3402829fcc88df4222e80c0e3ec806c7f54769c06a57f6c64736f6c634300081e0033",
  "linkReferences": {},
  "deployedLinkReferences": {},
  "immutableReferences": {
    "2794": [
      {
        "length": 32,
        "start": 722
      },
      {
        "length": 32,
        "start": 1593
      }
    ]
  },
  "inputSourceName": "project/contracts/savings/SavingsNFT.sol",
  "buildInfoId": "solc-0_8_30-31c99653b669f68c69550bbacf2764f784510224"
}